{
  "contractName": "SolnSquareVerifier",
  "abi": [
    {
      "inputs": [
        {
          "internalType": "address",
          "name": "verifierAddress",
          "type": "address"
        },
        {
          "internalType": "string",
          "name": "name",
          "type": "string"
        },
        {
          "internalType": "string",
          "name": "symbol",
          "type": "string"
        }
      ],
      "payable": false,
      "stateMutability": "nonpayable",
      "type": "constructor"
    },
    {
      "anonymous": false,
      "inputs": [
        {
          "indexed": true,
          "internalType": "address",
          "name": "owner",
          "type": "address"
        },
        {
          "indexed": true,
          "internalType": "address",
          "name": "approved",
          "type": "address"
        },
        {
          "indexed": true,
          "internalType": "uint256",
          "name": "tokenId",
          "type": "uint256"
        }
      ],
      "name": "Approval",
      "type": "event"
    },
    {
      "anonymous": false,
      "inputs": [
        {
          "indexed": true,
          "internalType": "address",
          "name": "owner",
          "type": "address"
        },
        {
          "indexed": true,
          "internalType": "address",
          "name": "operator",
          "type": "address"
        },
        {
          "indexed": false,
          "internalType": "bool",
          "name": "approved",
          "type": "bool"
        }
      ],
      "name": "ApprovalForAll",
      "type": "event"
    },
    {
      "anonymous": false,
      "inputs": [
        {
          "indexed": false,
          "internalType": "address",
          "name": "account",
          "type": "address"
        }
      ],
      "name": "Paused",
      "type": "event"
    },
    {
      "anonymous": false,
      "inputs": [
        {
          "indexed": false,
          "internalType": "bytes32",
          "name": "solutionKey",
          "type": "bytes32"
        },
        {
          "indexed": false,
          "internalType": "address",
          "name": "solutionAddress",
          "type": "address"
        }
      ],
      "name": "SolutionAdded",
      "type": "event"
    },
    {
      "anonymous": false,
      "inputs": [
        {
          "indexed": true,
          "internalType": "address",
          "name": "from",
          "type": "address"
        },
        {
          "indexed": true,
          "internalType": "address",
          "name": "to",
          "type": "address"
        },
        {
          "indexed": true,
          "internalType": "uint256",
          "name": "tokenId",
          "type": "uint256"
        }
      ],
      "name": "Transfer",
      "type": "event"
    },
    {
      "anonymous": false,
      "inputs": [
        {
          "indexed": true,
          "internalType": "address",
          "name": "oldOwner",
          "type": "address"
        },
        {
          "indexed": true,
          "internalType": "address",
          "name": "newOwner",
          "type": "address"
        }
      ],
      "name": "TransferOwnerShip",
      "type": "event"
    },
    {
      "anonymous": false,
      "inputs": [
        {
          "indexed": false,
          "internalType": "address",
          "name": "account",
          "type": "address"
        }
      ],
      "name": "Unpaused",
      "type": "event"
    },
    {
      "constant": false,
      "inputs": [
        {
          "internalType": "bytes32",
          "name": "_myid",
          "type": "bytes32"
        },
        {
          "internalType": "string",
          "name": "_result",
          "type": "string"
        }
      ],
      "name": "__callback",
      "outputs": [],
      "payable": false,
      "stateMutability": "nonpayable",
      "type": "function"
    },
    {
      "constant": false,
      "inputs": [
        {
          "internalType": "bytes32",
          "name": "_myid",
          "type": "bytes32"
        },
        {
          "internalType": "string",
          "name": "_result",
          "type": "string"
        },
        {
          "internalType": "bytes",
          "name": "_proof",
          "type": "bytes"
        }
      ],
      "name": "__callback",
      "outputs": [],
      "payable": false,
      "stateMutability": "nonpayable",
      "type": "function"
    },
    {
      "constant": false,
      "inputs": [
        {
          "internalType": "address",
          "name": "to",
          "type": "address"
        },
        {
          "internalType": "uint256",
          "name": "tokenId",
          "type": "uint256"
        }
      ],
      "name": "approve",
      "outputs": [],
      "payable": false,
      "stateMutability": "nonpayable",
      "type": "function"
    },
    {
      "constant": true,
      "inputs": [
        {
          "internalType": "address",
          "name": "owner",
          "type": "address"
        }
      ],
      "name": "balanceOf",
      "outputs": [
        {
          "internalType": "uint256",
          "name": "",
          "type": "uint256"
        }
      ],
      "payable": false,
      "stateMutability": "view",
      "type": "function"
    },
    {
      "constant": true,
      "inputs": [],
      "name": "baseTokenURI",
      "outputs": [
        {
          "internalType": "string",
          "name": "",
          "type": "string"
        }
      ],
      "payable": false,
      "stateMutability": "view",
      "type": "function"
    },
    {
      "constant": true,
      "inputs": [
        {
          "internalType": "uint256",
          "name": "tokenId",
          "type": "uint256"
        }
      ],
      "name": "getApproved",
      "outputs": [
        {
          "internalType": "address",
          "name": "",
          "type": "address"
        }
      ],
      "payable": false,
      "stateMutability": "view",
      "type": "function"
    },
    {
      "constant": true,
      "inputs": [
        {
          "internalType": "address",
          "name": "owner",
          "type": "address"
        },
        {
          "internalType": "address",
          "name": "operator",
          "type": "address"
        }
      ],
      "name": "isApprovedForAll",
      "outputs": [
        {
          "internalType": "bool",
          "name": "",
          "type": "bool"
        }
      ],
      "payable": false,
      "stateMutability": "view",
      "type": "function"
    },
    {
      "constant": true,
      "inputs": [],
      "name": "isOwner",
      "outputs": [
        {
          "internalType": "bool",
          "name": "",
          "type": "bool"
        }
      ],
      "payable": false,
      "stateMutability": "view",
      "type": "function"
    },
    {
      "constant": false,
      "inputs": [
        {
          "internalType": "address",
          "name": "to",
          "type": "address"
        },
        {
          "internalType": "uint256",
          "name": "tokenId",
          "type": "uint256"
        }
      ],
      "name": "mint",
      "outputs": [
        {
          "internalType": "bool",
          "name": "",
          "type": "bool"
        }
      ],
      "payable": false,
      "stateMutability": "nonpayable",
      "type": "function"
    },
    {
      "constant": true,
      "inputs": [],
      "name": "name",
      "outputs": [
        {
          "internalType": "string",
          "name": "",
          "type": "string"
        }
      ],
      "payable": false,
      "stateMutability": "view",
      "type": "function"
    },
    {
      "constant": true,
      "inputs": [],
      "name": "owner",
      "outputs": [
        {
          "internalType": "address",
          "name": "",
          "type": "address"
        }
      ],
      "payable": false,
      "stateMutability": "view",
      "type": "function"
    },
    {
      "constant": true,
      "inputs": [
        {
          "internalType": "uint256",
          "name": "tokenId",
          "type": "uint256"
        }
      ],
      "name": "ownerOf",
      "outputs": [
        {
          "internalType": "address",
          "name": "",
          "type": "address"
        }
      ],
      "payable": false,
      "stateMutability": "view",
      "type": "function"
    },
    {
      "constant": false,
      "inputs": [],
      "name": "pause",
      "outputs": [],
      "payable": false,
      "stateMutability": "nonpayable",
      "type": "function"
    },
    {
      "constant": false,
      "inputs": [
        {
          "internalType": "address",
          "name": "from",
          "type": "address"
        },
        {
          "internalType": "address",
          "name": "to",
          "type": "address"
        },
        {
          "internalType": "uint256",
          "name": "tokenId",
          "type": "uint256"
        }
      ],
      "name": "safeTransferFrom",
      "outputs": [],
      "payable": false,
      "stateMutability": "nonpayable",
      "type": "function"
    },
    {
      "constant": false,
      "inputs": [
        {
          "internalType": "address",
          "name": "from",
          "type": "address"
        },
        {
          "internalType": "address",
          "name": "to",
          "type": "address"
        },
        {
          "internalType": "uint256",
          "name": "tokenId",
          "type": "uint256"
        },
        {
          "internalType": "bytes",
          "name": "_data",
          "type": "bytes"
        }
      ],
      "name": "safeTransferFrom",
      "outputs": [],
      "payable": false,
      "stateMutability": "nonpayable",
      "type": "function"
    },
    {
      "constant": false,
      "inputs": [
        {
          "internalType": "address",
          "name": "to",
          "type": "address"
        },
        {
          "internalType": "bool",
          "name": "approved",
          "type": "bool"
        }
      ],
      "name": "setApprovalForAll",
      "outputs": [],
      "payable": false,
      "stateMutability": "nonpayable",
      "type": "function"
    },
    {
      "constant": true,
      "inputs": [
        {
          "internalType": "bytes4",
          "name": "interfaceId",
          "type": "bytes4"
        }
      ],
      "name": "supportsInterface",
      "outputs": [
        {
          "internalType": "bool",
          "name": "",
          "type": "bool"
        }
      ],
      "payable": false,
      "stateMutability": "view",
      "type": "function"
    },
    {
      "constant": true,
      "inputs": [],
      "name": "symbol",
      "outputs": [
        {
          "internalType": "string",
          "name": "",
          "type": "string"
        }
      ],
      "payable": false,
      "stateMutability": "view",
      "type": "function"
    },
    {
      "constant": true,
      "inputs": [
        {
          "internalType": "uint256",
          "name": "index",
          "type": "uint256"
        }
      ],
      "name": "tokenByIndex",
      "outputs": [
        {
          "internalType": "uint256",
          "name": "",
          "type": "uint256"
        }
      ],
      "payable": false,
      "stateMutability": "view",
      "type": "function"
    },
    {
      "constant": true,
      "inputs": [
        {
          "internalType": "address",
          "name": "owner",
          "type": "address"
        },
        {
          "internalType": "uint256",
          "name": "index",
          "type": "uint256"
        }
      ],
      "name": "tokenOfOwnerByIndex",
      "outputs": [
        {
          "internalType": "uint256",
          "name": "",
          "type": "uint256"
        }
      ],
      "payable": false,
      "stateMutability": "view",
      "type": "function"
    },
    {
      "constant": true,
      "inputs": [
        {
          "internalType": "uint256",
          "name": "tokenId",
          "type": "uint256"
        }
      ],
      "name": "tokenURI",
      "outputs": [
        {
          "internalType": "string",
          "name": "",
          "type": "string"
        }
      ],
      "payable": false,
      "stateMutability": "view",
      "type": "function"
    },
    {
      "constant": true,
      "inputs": [],
      "name": "totalSupply",
      "outputs": [
        {
          "internalType": "uint256",
          "name": "",
          "type": "uint256"
        }
      ],
      "payable": false,
      "stateMutability": "view",
      "type": "function"
    },
    {
      "constant": false,
      "inputs": [
        {
          "internalType": "address",
          "name": "from",
          "type": "address"
        },
        {
          "internalType": "address",
          "name": "to",
          "type": "address"
        },
        {
          "internalType": "uint256",
          "name": "tokenId",
          "type": "uint256"
        }
      ],
      "name": "transferFrom",
      "outputs": [],
      "payable": false,
      "stateMutability": "nonpayable",
      "type": "function"
    },
    {
      "constant": false,
      "inputs": [
        {
          "internalType": "address",
          "name": "newOwner",
          "type": "address"
        }
      ],
      "name": "transferOwnership",
      "outputs": [],
      "payable": false,
      "stateMutability": "nonpayable",
      "type": "function"
    },
    {
      "constant": false,
      "inputs": [],
      "name": "unpause",
      "outputs": [],
      "payable": false,
      "stateMutability": "nonpayable",
      "type": "function"
    },
    {
      "constant": false,
      "inputs": [
        {
          "internalType": "uint256[2]",
          "name": "a",
          "type": "uint256[2]"
        },
        {
          "internalType": "uint256[2][2]",
          "name": "b",
          "type": "uint256[2][2]"
        },
        {
          "internalType": "uint256[2]",
          "name": "c",
          "type": "uint256[2]"
        },
        {
          "internalType": "uint256[2]",
          "name": "input",
          "type": "uint256[2]"
        }
      ],
      "name": "addSolution",
      "outputs": [],
      "payable": false,
      "stateMutability": "nonpayable",
      "type": "function"
    },
    {
      "constant": false,
      "inputs": [
        {
          "internalType": "address",
          "name": "to",
          "type": "address"
        },
        {
          "internalType": "uint256",
          "name": "tokenId",
          "type": "uint256"
        },
        {
          "internalType": "uint256[2]",
          "name": "a",
          "type": "uint256[2]"
        },
        {
          "internalType": "uint256[2][2]",
          "name": "b",
          "type": "uint256[2][2]"
        },
        {
          "internalType": "uint256[2]",
          "name": "c",
          "type": "uint256[2]"
        },
        {
          "internalType": "uint256[2]",
          "name": "input",
          "type": "uint256[2]"
        }
      ],
      "name": "mintWithVerification",
      "outputs": [],
      "payable": false,
      "stateMutability": "nonpayable",
      "type": "function"
    }
  ],
  "bytecode": "0x608060405260016014553480156200001657600080fd5b5060405162003dfe38038062003dfe833981810160405260608110156200003c57600080fd5b8101908080519060200190929190805160405193929190846401000000008211156200006757600080fd5b838201915060208201858111156200007e57600080fd5b82518660018202830111640100000000821117156200009c57600080fd5b8083526020830192505050908051906020019080838360005b83811015620000d2578082015181840152602081019050620000b5565b50505050905090810190601f168015620001005780820380516001836020036101000a031916815260200191505b50604052602001805160405193929190846401000000008211156200012457600080fd5b838201915060208201858111156200013b57600080fd5b82518660018202830111640100000000821117156200015957600080fd5b8083526020830192505050908051906020019080838360005b838110156200018f57808201518184015260208101905062000172565b50505050905090810190601f168015620001bd5780820380516001836020036101000a031916815260200191505b50604052505050818181816040518060600160405280603f815260200162003dbf603f9139336000806101000a81548173ffffffffffffffffffffffffffffffffffffffff021916908373ffffffffffffffffffffffffffffffffffffffff1602179055506000809054906101000a900473ffffffffffffffffffffffffffffffffffffffff1673ffffffffffffffffffffffffffffffffffffffff16600073ffffffffffffffffffffffffffffffffffffffff167fc5bf6dda410d3f9123b5de1a2f5d486bd65c29adfc2e21c0ac98fd6f826fd4a260405160405180910390a360008060146101000a81548160ff021916908315150217905550620002d06301ffc9a760e01b620003b260201b60201c565b620002e86380ac58cd60e01b620003b260201b60201c565b6200030063780e9d6360e01b620003b260201b60201c565b82600f90805190602001906200031892919062000452565b5081601090805190602001906200033192919062000452565b5080601190805190602001906200034a92919062000452565b5062000363635b5e139f60e01b620003b260201b60201c565b505050505082601360006101000a81548173ffffffffffffffffffffffffffffffffffffffff021916908373ffffffffffffffffffffffffffffffffffffffff16021790555050505062000501565b63ffffffff60e01b817bffffffffffffffffffffffffffffffffffffffffffffffffffffffff19161415620003e657600080fd5b6001806000837bffffffffffffffffffffffffffffffffffffffffffffffffffffffff19167bffffffffffffffffffffffffffffffffffffffffffffffffffffffff1916815260200190815260200160002060006101000a81548160ff02191690831515021790555050565b828054600181600116156101000203166002900490600052602060002090601f016020900481019282601f106200049557805160ff1916838001178555620004c6565b82800160010185558215620004c6579182015b82811115620004c5578251825591602001919060010190620004a8565b5b509050620004d59190620004d9565b5090565b620004fe91905b80821115620004fa576000816000905550600101620004e0565b5090565b90565b6138ae80620005116000396000f3fe608060405234801561001057600080fd5b50600436106101a95760003560e01c80636352211e116100f9578063b88d4fde11610097578063d547cfb711610071578063d547cfb714610cc7578063e985e9c514610d4a578063f2fde38b14610dc6578063f76b443114610e0a576101a9565b8063b88d4fde14610990578063c87b56dd14610a95578063cef3751714610b3c576101a9565b80638da5cb5b116100d35780638da5cb5b146108515780638f32d59b1461089b57806395d89b41146108bd578063a22cb46514610940576101a9565b80636352211e1461078157806370a08231146107ef5780638456cb5914610847576101a9565b806327dc297e116101665780633f4ba83a116101405780633f4ba83a1461066157806340c10f191461066b57806342842e0e146106d15780634f6ccce71461073f576101a9565b806327dc297e146103de5780632f745c59146104a357806338bbfa5014610505576101a9565b806301ffc9a7146101ae57806306fdde0314610213578063081812fc14610296578063095ea7b31461030457806318160ddd1461035257806323b872dd14610370575b600080fd5b6101f9600480360360208110156101c457600080fd5b8101908080357bffffffffffffffffffffffffffffffffffffffffffffffffffffffff19169060200190929190505050610f6b565b604051808215151515815260200191505060405180910390f35b61021b610fd3565b6040518080602001828103825283818151815260200191508051906020019080838360005b8381101561025b578082015181840152602081019050610240565b50505050905090810190601f1680156102885780820380516001836020036101000a031916815260200191505b509250505060405180910390f35b6102c2600480360360208110156102ac57600080fd5b8101908080359060200190929190505050611075565b604051808273ffffffffffffffffffffffffffffffffffffffff1673ffffffffffffffffffffffffffffffffffffffff16815260200191505060405180910390f35b6103506004803603604081101561031a57600080fd5b81019080803573ffffffffffffffffffffffffffffffffffffffff1690602001909291908035906020019092919050505061112d565b005b61035a61134e565b6040518082815260200191505060405180910390f35b6103dc6004803603606081101561038657600080fd5b81019080803573ffffffffffffffffffffffffffffffffffffffff169060200190929190803573ffffffffffffffffffffffffffffffffffffffff1690602001909291908035906020019092919050505061135b565b005b6104a1600480360360408110156103f457600080fd5b81019080803590602001909291908035906020019064010000000081111561041b57600080fd5b82018360208201111561042d57600080fd5b8035906020019184600183028401116401000000008311171561044f57600080fd5b91908080601f016020809104026020016040519081016040528093929190818152602001838380828437600081840152601f19601f82011690508083019250505050505050919291929050505061137e565b005b6104ef600480360360408110156104b957600080fd5b81019080803573ffffffffffffffffffffffffffffffffffffffff169060200190929190803590602001909291905050506113c1565b6040518082815260200191505060405180910390f35b61065f6004803603606081101561051b57600080fd5b81019080803590602001909291908035906020019064010000000081111561054257600080fd5b82018360208201111561055457600080fd5b8035906020019184600183028401116401000000008311171561057657600080fd5b91908080601f016020809104026020016040519081016040528093929190818152602001838380828437600081840152601f19601f820116905080830192505050505050509192919290803590602001906401000000008111156105d957600080fd5b8201836020820111156105eb57600080fd5b8035906020019184600183028401116401000000008311171561060d57600080fd5b91908080601f016020809104026020016040519081016040528093929190818152602001838380828437600081840152601f19601f820116905080830192505050505050509192919290505050611434565b005b610669611439565b005b6106b76004803603604081101561068157600080fd5b81019080803573ffffffffffffffffffffffffffffffffffffffff169060200190929190803590602001909291905050506115bb565b604051808215151515815260200191505060405180910390f35b61073d600480360360608110156106e757600080fd5b81019080803573ffffffffffffffffffffffffffffffffffffffff169060200190929190803573ffffffffffffffffffffffffffffffffffffffff1690602001909291908035906020019092919050505061165b565b005b61076b6004803603602081101561075557600080fd5b810190808035906020019092919050505061167b565b6040518082815260200191505060405180910390f35b6107ad6004803603602081101561079757600080fd5b81019080803590602001909291905050506116af565b604051808273ffffffffffffffffffffffffffffffffffffffff1673ffffffffffffffffffffffffffffffffffffffff16815260200191505060405180910390f35b6108316004803603602081101561080557600080fd5b81019080803573ffffffffffffffffffffffffffffffffffffffff16906020019092919050505061179b565b6040518082815260200191505060405180910390f35b61084f61188d565b005b610859611a11565b604051808273ffffffffffffffffffffffffffffffffffffffff1673ffffffffffffffffffffffffffffffffffffffff16815260200191505060405180910390f35b6108a3611a3a565b604051808215151515815260200191505060405180910390f35b6108c5611a91565b6040518080602001828103825283818151815260200191508051906020019080838360005b838110156109055780820151818401526020810190506108ea565b50505050905090810190601f1680156109325780820380516001836020036101000a031916815260200191505b509250505060405180910390f35b61098e6004803603604081101561095657600080fd5b81019080803573ffffffffffffffffffffffffffffffffffffffff169060200190929190803515159060200190929190505050611b33565b005b610a93600480360360808110156109a657600080fd5b81019080803573ffffffffffffffffffffffffffffffffffffffff169060200190929190803573ffffffffffffffffffffffffffffffffffffffff1690602001909291908035906020019092919080359060200190640100000000811115610a0d57600080fd5b820183602082011115610a1f57600080fd5b80359060200191846001830284011164010000000083111715610a4157600080fd5b91908080601f016020809104026020016040519081016040528093929190818152602001838380828437600081840152601f19601f820116905080830192505050505050509192919290505050611c6d565b005b610ac160048036036020811015610aab57600080fd5b8101908080359060200190929190505050611c93565b6040518080602001828103825283818151815260200191508051906020019080838360005b83811015610b01578082015181840152602081019050610ae6565b50505050905090810190601f168015610b2e5780820380516001836020036101000a031916815260200191505b509250505060405180910390f35b610cc56004803603610180811015610b5357600080fd5b81019080803573ffffffffffffffffffffffffffffffffffffffff1690602001909291908035906020019092919080604001906002806020026040519081016040528092919082600260200280828437600081840152601f19601f82011690508083019250505050505091929192908060800190600280602002604051908101604052809291906000905b82821015610c32578382604002016002806020026040519081016040528092919082600260200280828437600081840152601f19601f82011690508083019250505050505081526020019060010190610bde565b50505050919291929080604001906002806020026040519081016040528092919082600260200280828437600081840152601f19601f820116905080830192505050505050919291929080604001906002806020026040519081016040528092919082600260200280828437600081840152601f19601f8201169050808301925050505050509192919290505050611d5a565b005b610ccf611f76565b6040518080602001828103825283818151815260200191508051906020019080838360005b83811015610d0f578082015181840152602081019050610cf4565b50505050905090810190601f168015610d3c5780820380516001836020036101000a031916815260200191505b509250505060405180910390f35b610dac60048036036040811015610d6057600080fd5b81019080803573ffffffffffffffffffffffffffffffffffffffff169060200190929190803573ffffffffffffffffffffffffffffffffffffffff169060200190929190505050612018565b604051808215151515815260200191505060405180910390f35b610e0860048036036020811015610ddc57600080fd5b81019080803573ffffffffffffffffffffffffffffffffffffffff1690602001909291905050506120ac565b005b610f696004803603610140811015610e2157600080fd5b8101908080604001906002806020026040519081016040528092919082600260200280828437600081840152601f19601f82011690508083019250505050505091929192908060800190600280602002604051908101604052809291906000905b82821015610ed6578382604002016002806020026040519081016040528092919082600260200280828437600081840152601f19601f82011690508083019250505050505081526020019060010190610e82565b50505050919291929080604001906002806020026040519081016040528092919082600260200280828437600081840152601f19601f820116905080830192505050505050919291929080604001906002806020026040519081016040528092919082600260200280828437600081840152601f19601f820116905080830192505050505050919291929050505061228e565b005b600060016000837bffffffffffffffffffffffffffffffffffffffffffffffffffffffff19167bffffffffffffffffffffffffffffffffffffffffffffffffffffffff1916815260200190815260200160002060009054906101000a900460ff169050919050565b6060600f8054600181600116156101000203166002900480601f01602080910402602001604051908101604052809291908181526020018280546001816001161561010002031660029004801561106b5780601f106110405761010080835404028352916020019161106b565b820191906000526020600020905b81548152906001019060200180831161104e57829003601f168201915b5050505050905090565b600061108082612537565b6110f2576040517f08c379a00000000000000000000000000000000000000000000000000000000081526004018080602001828103825260148152602001807f546f6b656e20646f65736e27742065786973747300000000000000000000000081525060200191505060405180910390fd5b6003600083815260200190815260200160002060009054906101000a900473ffffffffffffffffffffffffffffffffffffffff169050919050565b611135611a11565b73ffffffffffffffffffffffffffffffffffffffff168273ffffffffffffffffffffffffffffffffffffffff1614156111d6576040517f08c379a00000000000000000000000000000000000000000000000000000000081526004018080602001828103825260198152602001807f4f776e6572206d6179206e6f7420626520617070726f7665640000000000000081525060200191505060405180910390fd5b6111de611a11565b73ffffffffffffffffffffffffffffffffffffffff163373ffffffffffffffffffffffffffffffffffffffff161480611224575061122361121d611a11565b33612018565b5b611296576040517f08c379a00000000000000000000000000000000000000000000000000000000081526004018080602001828103825260148152602001807f53656e646572206d757374206265206f776e657200000000000000000000000081525060200191505060405180910390fd5b816003600083815260200190815260200160002060006101000a81548173ffffffffffffffffffffffffffffffffffffffff021916908373ffffffffffffffffffffffffffffffffffffffff160217905550808273ffffffffffffffffffffffffffffffffffffffff16611308611a11565b73ffffffffffffffffffffffffffffffffffffffff167f8c5be1e5ebec7d5bd14f71427d1e84f3dd0314c0f7b2291e5b200ac8c7c3b92560405160405180910390a45050565b6000600880549050905090565b61136533826125a9565b61136e57600080fd5b61137983838361263e565b505050565b6113bd828260006040519080825280601f01601f1916602001820160405280156113b75781602001600182028038833980820191505090505b50611434565b5050565b60006113cc8361179b565b82106113d757600080fd5b600660008473ffffffffffffffffffffffffffffffffffffffff1673ffffffffffffffffffffffffffffffffffffffff168152602001908152602001600020828154811061142157fe5b9060005260206000200154905092915050565b505050565b60011515611445611a3a565b1515146114ba576040517f08c379a00000000000000000000000000000000000000000000000000000000081526004018080602001828103825260188152602001807f4f6e6c79206f776e65722063616e20616363657373206974000000000000000081525060200191505060405180910390fd5b600060149054906101000a900460ff1661153c576040517f08c379a00000000000000000000000000000000000000000000000000000000081526004018080602001828103825260178152602001807f697420697320616c726561647920756e2d70617573656400000000000000000081525060200191505060405180910390fd5b60008060146101000a81548160ff0219169083151502179055507f5db9ee0a495bf2e6ff9c91a7834c1ba4fdd244a5e8aa4e537bd38aeae4b073aa33604051808273ffffffffffffffffffffffffffffffffffffffff1673ffffffffffffffffffffffffffffffffffffffff16815260200191505060405180910390a1565b6000600115156115c9611a3a565b15151461163e576040517f08c379a00000000000000000000000000000000000000000000000000000000081526004018080602001828103825260188152602001807f4f6e6c79206f776e65722063616e20616363657373206974000000000000000081525060200191505060405180910390fd5b6116488383612662565b61165182612683565b6001905092915050565b61167683838360405180602001604052806000815250611c6d565b505050565b600061168561134e565b821061169057600080fd5b6008828154811061169d57fe5b90600052602060002001549050919050565b60008073ffffffffffffffffffffffffffffffffffffffff166116d0611a11565b73ffffffffffffffffffffffffffffffffffffffff16141561175a576040517f08c379a000000000000000000000000000000000000000000000000000000000815260040180806020018281038252601c8152602001807f596f752063616e27742063616c6c20746869732066756e6374696f6e0000000081525060200191505060405180910390fd5b60006002600084815260200190815260200160002060009054906101000a900473ffffffffffffffffffffffffffffffffffffffff16905080915050919050565b60008073ffffffffffffffffffffffffffffffffffffffff168273ffffffffffffffffffffffffffffffffffffffff16141561183f576040517f08c379a000000000000000000000000000000000000000000000000000000000815260040180806020018281038252601c8152602001807f596f752063616e27742063616c6c20746869732066756e6374696f6e0000000081525060200191505060405180910390fd5b611886600460008473ffffffffffffffffffffffffffffffffffffffff1673ffffffffffffffffffffffffffffffffffffffff1681526020019081526020016000206127d4565b9050919050565b60011515611899611a3a565b15151461190e576040517f08c379a00000000000000000000000000000000000000000000000000000000081526004018080602001828103825260188152602001807f4f6e6c79206f776e65722063616e20616363657373206974000000000000000081525060200191505060405180910390fd5b600060149054906101000a900460ff1615611991576040517f08c379a00000000000000000000000000000000000000000000000000000000081526004018080602001828103825260148152602001807f697420697320616c72656164792070617573656400000000000000000000000081525060200191505060405180910390fd5b6001600060146101000a81548160ff0219169083151502179055507f62e78cea01bee320cd4e420270b5ea74000d11b0c9f74754ebdbfc544b05a25833604051808273ffffffffffffffffffffffffffffffffffffffff1673ffffffffffffffffffffffffffffffffffffffff16815260200191505060405180910390a1565b60008060009054906101000a900473ffffffffffffffffffffffffffffffffffffffff16905090565b60008060009054906101000a900473ffffffffffffffffffffffffffffffffffffffff1673ffffffffffffffffffffffffffffffffffffffff163373ffffffffffffffffffffffffffffffffffffffff1614905090565b606060108054600181600116156101000203166002900480601f016020809104026020016040519081016040528092919081815260200182805460018160011615610100020316600290048015611b295780601f10611afe57610100808354040283529160200191611b29565b820191906000526020600020905b815481529060010190602001808311611b0c57829003601f168201915b5050505050905090565b3373ffffffffffffffffffffffffffffffffffffffff168273ffffffffffffffffffffffffffffffffffffffff161415611b6c57600080fd5b80600560003373ffffffffffffffffffffffffffffffffffffffff1673ffffffffffffffffffffffffffffffffffffffff16815260200190815260200160002060008473ffffffffffffffffffffffffffffffffffffffff1673ffffffffffffffffffffffffffffffffffffffff16815260200190815260200160002060006101000a81548160ff0219169083151502179055508173ffffffffffffffffffffffffffffffffffffffff163373ffffffffffffffffffffffffffffffffffffffff167f17307eab39ab6107e8899845ad3d59bd9653f200f220920489ca2b5937696c3183604051808215151515815260200191505060405180910390a35050565b611c7884848461135b565b611c84848484846127e2565b611c8d57600080fd5b50505050565b6060611c9e82612537565b611ca757600080fd5b601260008381526020019081526020016000208054600181600116156101000203166002900480601f016020809104026020016040519081016040528092919081815260200182805460018160011615610100020316600290048015611d4e5780601f10611d2357610100808354040283529160200191611d4e565b820191906000526020600020905b815481529060010190602001808311611d3157829003601f168201915b50505050509050919050565b601360009054906101000a900473ffffffffffffffffffffffffffffffffffffffff1673ffffffffffffffffffffffffffffffffffffffff1663621e9ec0858585856040518563ffffffff1660e01b81526004018085600260200280838360005b83811015611dd6578082015181840152602081019050611dbb565b505050509050018460026000925b81841015611e2a5782846020020151600260200280838360005b83811015611e19578082015181840152602081019050611dfe565b505050509050019260010192611de4565b9250505083600260200280838360005b83811015611e55578082015181840152602081019050611e3a565b5050505090500182600260200280838360005b83811015611e83578082015181840152602081019050611e68565b50505050905001945050505050602060405180830381600087803b158015611eaa57600080fd5b505af1158015611ebe573d6000803e3d6000fd5b505050506040513d6020811015611ed457600080fd5b8101908080519060200190929190505050611f57576040517f08c379a00000000000000000000000000000000000000000000000000000000081526004018080602001828103825260128152602001807f496e636f727265637420536f6c7574696f6e000000000000000000000000000081525060200191505060405180910390fd5b611f638484848461228e565b611f6d86866115bb565b50505050505050565b606060118054600181600116156101000203166002900480601f01602080910402602001604051908101604052809291908181526020018280546001816001161561010002031660029004801561200e5780601f10611fe35761010080835404028352916020019161200e565b820191906000526020600020905b815481529060010190602001808311611ff157829003601f168201915b5050505050905090565b6000600560008473ffffffffffffffffffffffffffffffffffffffff1673ffffffffffffffffffffffffffffffffffffffff16815260200190815260200160002060008373ffffffffffffffffffffffffffffffffffffffff1673ffffffffffffffffffffffffffffffffffffffff16815260200190815260200160002060009054906101000a900460ff16905092915050565b600115156120b8611a3a565b15151461212d576040517f08c379a00000000000000000000000000000000000000000000000000000000081526004018080602001828103825260188152602001807f4f6e6c79206f776e65722063616e20616363657373206974000000000000000081525060200191505060405180910390fd5b600073ffffffffffffffffffffffffffffffffffffffff168173ffffffffffffffffffffffffffffffffffffffff1614156121d0576040517f08c379a00000000000000000000000000000000000000000000000000000000081526004018080602001828103825260178152602001807f43616e27742063616c20746869732066756e6374696f6e00000000000000000081525060200191505060405180910390fd5b8073ffffffffffffffffffffffffffffffffffffffff166000809054906101000a900473ffffffffffffffffffffffffffffffffffffffff1673ffffffffffffffffffffffffffffffffffffffff167fc5bf6dda410d3f9123b5de1a2f5d486bd65c29adfc2e21c0ac98fd6f826fd4a260405160405180910390a3806000806101000a81548173ffffffffffffffffffffffffffffffffffffffff021916908373ffffffffffffffffffffffffffffffffffffffff16021790555050565b6000848484846040516020018085600260200280838360005b838110156122c25780820151818401526020810190506122a7565b505050509050018460026000925b818410156123165782846020020151600260200280838360005b838110156123055780820151818401526020810190506122ea565b5050505090500192600101926122d0565b9250505083600260200280838360005b83811015612341578082015181840152602081019050612326565b5050505090500182600260200280838360005b8381101561236f578082015181840152602081019050612354565b505050509050019450505050506040516020818303038152906040528051906020012090506000601560008381526020019081526020016000206000015414612420576040517f08c379a00000000000000000000000000000000000000000000000000000000081526004018080602001828103825260178152602001807f536f6c7574696f6e20616c72656164792065786973747300000000000000000081525060200191505060405180910390fd5b604051806040016040528060145481526020013373ffffffffffffffffffffffffffffffffffffffff16815250601560008381526020019081526020016000206000820151816000015560208201518160010160006101000a81548173ffffffffffffffffffffffffffffffffffffffff021916908373ffffffffffffffffffffffffffffffffffffffff16021790555090505060016014600082825401925050819055507f01d5f9f5a890e5385b4f1d07d3c8c1f739f82bb433ed461d4551b7af3edc63408133604051808381526020018273ffffffffffffffffffffffffffffffffffffffff1673ffffffffffffffffffffffffffffffffffffffff1681526020019250505060405180910390a15050505050565b6000806002600084815260200190815260200160002060009054906101000a900473ffffffffffffffffffffffffffffffffffffffff169050600073ffffffffffffffffffffffffffffffffffffffff168173ffffffffffffffffffffffffffffffffffffffff161415915050919050565b6000806125b5836116af565b90508073ffffffffffffffffffffffffffffffffffffffff168473ffffffffffffffffffffffffffffffffffffffff16148061262457508373ffffffffffffffffffffffffffffffffffffffff1661260c84611075565b73ffffffffffffffffffffffffffffffffffffffff16145b8061263557506126348185612018565b5b91505092915050565b6126498383836129cb565b6126538382612c60565b61265d8282612dfe565b505050565b61266c8282612ec5565b6126768282612dfe565b61267f816130dd565b5050565b61268c81612537565b6126fe576040517f08c379a00000000000000000000000000000000000000000000000000000000081526004018080602001828103825260148152602001807f546f6b656e20646f65736e27742065786973747300000000000000000000000081525060200191505060405180910390fd5b6127aa60118054600181600116156101000203166002900480601f0160208091040260200160405190810160405280929190818152602001828054600181600116156101000203166002900480156127975780601f1061276c57610100808354040283529160200191612797565b820191906000526020600020905b81548152906001019060200180831161277a57829003601f168201915b50505050506127a583613129565b613256565b6012600083815260200190815260200160002090805190602001906127d09291906137a8565b5050565b600081600001549050919050565b60006128038473ffffffffffffffffffffffffffffffffffffffff1661329a565b61281057600190506129c3565b60008473ffffffffffffffffffffffffffffffffffffffff1663150b7a02338887876040518563ffffffff1660e01b8152600401808573ffffffffffffffffffffffffffffffffffffffff1673ffffffffffffffffffffffffffffffffffffffff1681526020018473ffffffffffffffffffffffffffffffffffffffff1673ffffffffffffffffffffffffffffffffffffffff16815260200183815260200180602001828103825283818151815260200191508051906020019080838360005b838110156128eb5780820151818401526020810190506128d0565b50505050905090810190601f1680156129185780820380516001836020036101000a031916815260200191505b5095505050505050602060405180830381600087803b15801561293a57600080fd5b505af115801561294e573d6000803e3d6000fd5b505050506040513d602081101561296457600080fd5b8101908080519060200190929190505050905063150b7a0260e01b7bffffffffffffffffffffffffffffffffffffffffffffffffffffffff1916817bffffffffffffffffffffffffffffffffffffffffffffffffffffffff1916149150505b949350505050565b8273ffffffffffffffffffffffffffffffffffffffff166129eb826116af565b73ffffffffffffffffffffffffffffffffffffffff1614612a74576040517f08c379a00000000000000000000000000000000000000000000000000000000081526004018080602001828103825260178152602001807f596f752063616e2774207472616e73666572207468697300000000000000000081525060200191505060405180910390fd5b600073ffffffffffffffffffffffffffffffffffffffff168273ffffffffffffffffffffffffffffffffffffffff161415612b17576040517f08c379a000000000000000000000000000000000000000000000000000000000815260040180806020018281038252601e8152602001807f43616e2774207472616e7366657220746f20746869732061646472657373000081525060200191505060405180910390fd5b612b20816132e5565b612b67600460008573ffffffffffffffffffffffffffffffffffffffff1673ffffffffffffffffffffffffffffffffffffffff1681526020019081526020016000206133a3565b612bae600460008473ffffffffffffffffffffffffffffffffffffffff1673ffffffffffffffffffffffffffffffffffffffff1681526020019081526020016000206133c6565b816002600083815260200190815260200160002060006101000a81548173ffffffffffffffffffffffffffffffffffffffff021916908373ffffffffffffffffffffffffffffffffffffffff160217905550808273ffffffffffffffffffffffffffffffffffffffff168473ffffffffffffffffffffffffffffffffffffffff167fddf252ad1be2c89b69c2b068fc378daa952ba7f163c4a11628f55a4df523b3ef60405160405180910390a4505050565b6000612cb86001600660008673ffffffffffffffffffffffffffffffffffffffff1673ffffffffffffffffffffffffffffffffffffffff168152602001908152602001600020805490506133dc90919063ffffffff16565b9050600060076000848152602001908152602001600020549050818114612da5576000600660008673ffffffffffffffffffffffffffffffffffffffff1673ffffffffffffffffffffffffffffffffffffffff1681526020019081526020016000208381548110612d2557fe5b9060005260206000200154905080600660008773ffffffffffffffffffffffffffffffffffffffff1673ffffffffffffffffffffffffffffffffffffffff1681526020019081526020016000208381548110612d7d57fe5b9060005260206000200181905550816007600083815260200190815260200160002081905550505b600660008573ffffffffffffffffffffffffffffffffffffffff1673ffffffffffffffffffffffffffffffffffffffff168152602001908152602001600020805480919060019003612df79190613828565b5050505050565b600660008373ffffffffffffffffffffffffffffffffffffffff1673ffffffffffffffffffffffffffffffffffffffff168152602001908152602001600020805490506007600083815260200190815260200160002081905550600660008373ffffffffffffffffffffffffffffffffffffffff1673ffffffffffffffffffffffffffffffffffffffff1681526020019081526020016000208190806001815401808255809150509060018203906000526020600020016000909192909190915055505050565b600073ffffffffffffffffffffffffffffffffffffffff168273ffffffffffffffffffffffffffffffffffffffff161415612f68576040517f08c379a00000000000000000000000000000000000000000000000000000000081526004018080602001828103825260028152602001807f4e4100000000000000000000000000000000000000000000000000000000000081525060200191505060405180910390fd5b612f7181612537565b15612fe4576040517f08c379a00000000000000000000000000000000000000000000000000000000081526004018080602001828103825260148152602001807f546f6b656e20616c72656164792065786973747300000000000000000000000081525060200191505060405180910390fd5b816002600083815260200190815260200160002060006101000a81548173ffffffffffffffffffffffffffffffffffffffff021916908373ffffffffffffffffffffffffffffffffffffffff16021790555061307d600460008473ffffffffffffffffffffffffffffffffffffffff1673ffffffffffffffffffffffffffffffffffffffff1681526020019081526020016000206133c6565b808273ffffffffffffffffffffffffffffffffffffffff16600073ffffffffffffffffffffffffffffffffffffffff167fddf252ad1be2c89b69c2b068fc378daa952ba7f163c4a11628f55a4df523b3ef60405160405180910390a45050565b6008805490506009600083815260200190815260200160002081905550600881908060018154018082558091505090600182039060005260206000200160009091929091909150555050565b60606000821415613171576040518060400160405280600181526020017f30000000000000000000000000000000000000000000000000000000000000008152509050613251565b600082905060005b6000821461319b578080600101915050600a828161319357fe5b049150613179565b6060816040519080825280601f01601f1916602001820160405280156131d05781602001600182028038833980820191505090505b50905060006001830390505b6000861461324957600a86816131ee57fe5b0660300160f81b8282806001900393508151811061320857fe5b60200101907effffffffffffffffffffffffffffffffffffffffffffffffffffffffffffff1916908160001a905350600a868161324157fe5b0495506131dc565b819450505050505b919050565b60606132928383604051806020016040528060008152506040518060200160405280600081525060405180602001604052806000815250613426565b905092915050565b60008060007fc5d2460186f7233c927e7db2dcc703c0e500b653ca82273b7bfad8045d85a47060001b9050833f91508082141580156132dc57506000801b8214155b92505050919050565b600073ffffffffffffffffffffffffffffffffffffffff166003600083815260200190815260200160002060009054906101000a900473ffffffffffffffffffffffffffffffffffffffff1673ffffffffffffffffffffffffffffffffffffffff16146133a05760006003600083815260200190815260200160002060006101000a81548173ffffffffffffffffffffffffffffffffffffffff021916908373ffffffffffffffffffffffffffffffffffffffff1602179055505b50565b6133bb600182600001546133dc90919063ffffffff16565b816000018190555050565b6001816000016000828254019250508190555050565b600061341e83836040518060400160405280601e81526020017f536166654d6174683a207375627472616374696f6e206f766572666c6f7700008152506136e8565b905092915050565b6060808690506060869050606086905060608690506060869050606081518351855187518951010101016040519080825280601f01601f1916602001820160405280156134825781602001600182028038833980820191505090505b509050606081905060008090506000809050600090505b8851811015613507578881815181106134ae57fe5b602001015160f81c60f81b8383806001019450815181106134cb57fe5b60200101907effffffffffffffffffffffffffffffffffffffffffffffffffffffffffffff1916908160001a9053508080600101915050613499565b600090505b875181101561357a5787818151811061352157fe5b602001015160f81c60f81b83838060010194508151811061353e57fe5b60200101907effffffffffffffffffffffffffffffffffffffffffffffffffffffffffffff1916908160001a905350808060010191505061350c565b600090505b86518110156135ed5786818151811061359457fe5b602001015160f81c60f81b8383806001019450815181106135b157fe5b60200101907effffffffffffffffffffffffffffffffffffffffffffffffffffffffffffff1916908160001a905350808060010191505061357f565b600090505b85518110156136605785818151811061360757fe5b602001015160f81c60f81b83838060010194508151811061362457fe5b60200101907effffffffffffffffffffffffffffffffffffffffffffffffffffffffffffff1916908160001a90535080806001019150506135f2565b600090505b84518110156136d35784818151811061367a57fe5b602001015160f81c60f81b83838060010194508151811061369757fe5b60200101907effffffffffffffffffffffffffffffffffffffffffffffffffffffffffffff1916908160001a9053508080600101915050613665565b82995050505050505050505095945050505050565b6000838311158290613795576040517f08c379a00000000000000000000000000000000000000000000000000000000081526004018080602001828103825283818151815260200191508051906020019080838360005b8381101561375a57808201518184015260208101905061373f565b50505050905090810190601f1680156137875780820380516001836020036101000a031916815260200191505b509250505060405180910390fd5b5060008385039050809150509392505050565b828054600181600116156101000203166002900490600052602060002090601f016020900481019282601f106137e957805160ff1916838001178555613817565b82800160010185558215613817579182015b828111156138165782518255916020019190600101906137fb565b5b5090506138249190613854565b5090565b81548183558181111561384f5781836000526020600020918201910161384e9190613854565b5b505050565b61387691905b8082111561387257600081600090555060010161385a565b5090565b9056fea265627a7a72315820df2fbdbbfa102b9ae6928f0ac00c0687731e5cc024e3db00e0e3aa5b74e4458164736f6c6343000510003268747470733a2f2f73332d75732d776573742d322e616d617a6f6e6177732e636f6d2f756461636974792d626c6f636b636861696e2f63617073746f6e652f",
  "source": "pragma solidity >=0.4.21 <0.6.0;\n\nimport \"./Verifier.sol\";\nimport \"./ERC721Mintable.sol\";\n\n\n// TODO define a contract call to the zokrates generated solidity contract <Verifier> or <renamedVerifier>\n// TODO define another contract named SolnSquareVerifier that inherits from your ERC721Mintable class\ncontract SolnSquareVerifier is CustomERC721Token {\n    Verifier verifierContract;\n\n    constructor(\n        address verifierAddress,\n        string memory name,\n        string memory symbol\n    ) public CustomERC721Token(name, symbol) {\n        verifierContract = Verifier(verifierAddress);\n    }\n\n    // TODO define a solutions struct that can hold an index & an address\n    struct Solution {\n        uint256 index;\n        address senderAddress;\n    }\n\n    uint256 solutionCounter = 1;\n\n    // TODO define a mapping to store unique solutions submitted\n    mapping(bytes32 => Solution) private solutionsSubmitted;\n\n    // TODO define an array of the above struct\n    // TODO Create an event to emit when a solution is added\n    event SolutionAdded(bytes32 solutionKey, address solutionAddress);\n\n    // TODO Create a function to add the solutions to the array and emit the event\n    function addSolution(\n        uint256[2] memory a,\n        uint256[2][2] memory b,\n        uint256[2] memory c,\n        uint256[2] memory input\n    ) public {\n        bytes32 key = keccak256(abi.encodePacked(a, b, c, input));\n\n        require(solutionsSubmitted[key].index == 0, \"Solution already exists\");\n        solutionsSubmitted[key] = Solution({\n            index: solutionCounter,\n            senderAddress: msg.sender\n        });\n        solutionCounter += 1;\n\n        emit SolutionAdded(key, msg.sender);\n    }\n\n    // TODO Create a function to mint new NFT only after the solution has been verified\n    //  - make sure the solution is unique (has not been used before)\n    //  - make sure you handle metadata as well as tokenSuplly\n    function mintWithVerification(\n        address to,\n        uint256 tokenId,\n        uint256[2] memory a,\n        uint256[2][2] memory b,\n        uint256[2] memory c,\n        uint256[2] memory input\n    ) public {\n        require(\n            verifierContract.verifyTx(a, b, c, input),\n            \"Incorrect Solution\"\n        );\n        addSolution(a, b, c, input);\n        super.mint(to, tokenId);\n    }\n}",
  "sourcePath": "/home/ubuntu/class-demos/blockchain/Blockchain-Capstone/eth-contracts/contracts/SolnSquareVerifier.sol",
  "compiler": {
    "name": "solc",
    "version": "0.5.16+commit.9c3226ce.Emscripten.clang"
  },
  "schemaVersion": "3.1.0",
  "updatedAt": "2020-05-20T06:54:21.027Z",
  "networkType": "ethereum",
  "devdoc": {
    "methods": {
      "isApprovedForAll(address,address)": {
        "details": "Tells whether an operator is approved by a given owner",
        "params": {
          "operator": "operator address which you want to query the approval of",
          "owner": "owner address which you want to query the approval of"
        },
        "return": "bool whether the given operator is approved by the given owner"
      },
      "setApprovalForAll(address,bool)": {
        "details": "Sets or unsets the approval of a given operator An operator is allowed to transfer all tokens of the sender on their behalf",
        "params": {
          "approved": "representing the status of the approval to be set",
          "to": "operator address to set the approval"
        }
      },
      "supportsInterface(bytes4)": {
        "details": "implement supportsInterface(bytes4) using a lookup table"
      },
      "tokenByIndex(uint256)": {
        "details": "Gets the token ID at a given index of all the tokens in this contract Reverts if the index is greater or equal to the total number of tokens",
        "params": {
          "index": "uint256 representing the index to be accessed of the tokens list"
        },
        "return": "uint256 token ID at the given index of the tokens list"
      },
      "tokenOfOwnerByIndex(address,uint256)": {
        "details": "Gets the token ID at a given index of the tokens list of the requested owner",
        "params": {
          "index": "uint256 representing the index to be accessed of the requested tokens list",
          "owner": "address owning the tokens list to be accessed"
        },
        "return": "uint256 token ID at the given index of the tokens list owned by the requested address"
      },
      "totalSupply()": {
        "details": "Gets the total amount of tokens stored by the contract",
        "return": "uint256 representing the total amount of tokens"
      }
    }
  },
  "userdoc": {
    "methods": {}
  }
}